:020000040800F2
:1000000078070020290200081309000823040008CB
:10001000110900081F040008190C00080000000066
:100020000000000000000000000000009D0A000821
:10003000210400080000000047090008C50A000864
:10004000430200084302000843020008430200087C
:10005000430200084302000843020008430200086C
:10006000430200084302000843020008430200085C
:10007000430200084302000843020008430200084C
:10008000430200084302000843020008430200083C
:10009000430200084302000843020008430200082C
:1000A000430200084302000843020008430200081C
:1000B000430200084302000843020008430200080C
:1000C00043020008430200084302000843020008FC
:1000D0004302000843020008E90B0008430200083D
:1000E00043020008430200084302000843020008DC
:1000F00043020008430200084302000843020008CC
:1001000043020008430200084302000843020008BB
:1001100043020008430200084302000843020008AB
:10012000430200084302000843020008430200089B
:10013000430200084302000843020008430200088B
:10014000430200084302000843020008430200087B
:10015000430200084302000843020008430200086B
:10016000430200084302000843020008430200085B
:100170004302000843020008430200080000000098
:10018000430200084302000800F002F800F03CF8C7
:100190000AA090E8000C82448344AAF10107DA45E2
:1001A00001D100F031F8AFF2090EBAE80F0013F0F8
:1001B000010F18BFFB1A43F001031847780E000027
:1001C000980E0000103A24BF78C878C1FAD85207B8
:1001D00024BF30C830C144BF04680C6070470000C1
:1001E0000023002400250026103A28BF78C1FBD840
:1001F000520728BF30C148BF0B6070471FB500F0E1
:10020000EFFD1FBD10B510BD00F0CFF81146FFF790
:10021000F5FF00F06FFD00F0EDF803B4FFF7F2FF1B
:1002200003BC00F0F5F80000094880470948004782
:10023000FEE7FEE7FEE7FEE7FEE7FEE7FEE7FEE796
:10024000FEE7FEE704480549054A064B70470000F3
:10025000D90B0008890100087801002078070020E8
:100260007803002078030020032A40F2308010F049
:10027000030C00F0158011F8013BBCF1020F624441
:1002800098BF11F801CB00F8013B38BF11F8013BD2
:10029000A2F1040298BF00F801CB38BF00F8013B7F
:1002A00011F0030300F04F80083AC0F0088051F8C5
:1002B000043B083A51F804CBA0E80810F5E7121DFA
:1002C0005CBF51F8043B40F8043BAFF30080D20719
:1002D00024BF11F8013B11F801CB48BF11F8012BE5
:1002E00024BF00F8013B00F801CB48BF00F8012B08
:1002F00070474FF0000200B51346944696462039E9
:1003000022BFA0E80C50A0E80C50B1F12001BFF4CE
:10031000F7AF090728BFA0E80C5048BF0CC05DF834
:1003200004EB890028BF40F8042B08BF704748BF82
:1003300020F8022B11F0804F18BF00F8012B7047F6
:1003400070477047704710B5203AC0F00B80B1E895
:100350001850203AA0E81850B1E81850A0E81850FA
:10036000BFF4F5AF5FEA027C24BFB1E81850A0E803
:10037000185044BF18C918C0BDE810405FEA827C1D
:1003800024BF51F8043B40F8043B08BF7047D20734
:1003900028BF31F8023B48BF11F8012B28BF20F8D5
:1003A000023B48BF00F8012B7047754600F02CF85F
:1003B000AE4605006946534620F00700854618B052
:1003C00020B5FFF73FFFBDE820404FF000064FF09B
:1003D00000074FF000084FF0000B21F00701AC467A
:1003E000ACE8C009ACE8C009ACE8C009ACE8C00999
:1003F0008D46704710B50446AFF300802046BDE837
:100400001040FFF70ABF00000048704718010020A5
:1004100001491820ABBEFEE7260002007047FEE748
:100420007047FEE7044908B5CA6C0243CA64C96C48
:100430000140009108BD000000100240044908B5C9
:100440008A6D02438A65896D0140009108BD0000F4
:1004500000100240F0B50A680F2692FAA2F2B2FA32
:1004600082F303248AE001259D402A407ED04D6816
:10047000012D01D0022D20D18D68876892FAA2FC4F
:10048000BCFA8CFC4FEA4C0E04FA0EFC27EA0C076F
:1004900092FAA2FCBCFA8CFC4FEA4C0C05FA0CF563
:1004A0002F438760CF680D68D0F804C02CEA050C94
:1004B0007D434CEA050CC0F804C00F69D0F80CC0AD
:1004C00092FAA2F5B5FA85F54FEA450E04FA0EF553
:1004D0002CEA050C92FAA2F5B5FA85F56D00AF404D
:1004E0004CEA070CC0F80CC04D68022D2FD1FF2A32
:1004F00015D8D1F814C0056A92FAA2F7B7FA87F7AF
:10050000BF0006FA07F7BD4392FAA2F7B7FA87F7DA
:10051000BF000CFA07FC45EA0C05056217E0D1F8AC
:1005200014E0476A150A95FAA5FCBCFA8CFC4FEA60
:100530008C0C06FA0CFC95FAA5F5B5FA85F5AD001C
:1005400027EA0C070EFA05FE47EA0E0747624D68D8
:10055000076892FAA2FCBCFA8CFC4FEA4C0C04FA35
:100560000CFE27EA0E0792FAA2F200E005E0B2FACA
:1005700082F2520095402F4307605B1C0A6832FAF2
:1005800003F57FF470AF0020F0BD4FF47A71B0FB3B
:10059000F1F14FF0E020491E416100218161052108
:1005A0000161704770B500242249234D4FF4004685
:1005B000C02803D0B0F5407F1ED02FE0D1F88800CE
:1005C00000F0C00040F44000B0F5400F2BD04038A0
:1005D000B0F5400024D0402802D080281ED104E08D
:1005E00000F094F8D0B12C4618E000F097F8A8B1CC
:1005F000344613E0044611E0D1F8880000F440705E
:1006000040F04070B0F1407F0DD00C49401807D049
:10061000B0F5807FE4D0B0F5007FE6D0204670BD15
:1006200000F0BCF9E6E700F0B9F900F08DF900F050
:1006300099F9DFE7001002400024F40000FFFFFCFE
:1006400070B500242F49304D4FF40046032804D0E4
:100650000C281ED0302837D034E0D1F8880000F0C4
:10066000030040F44030B0F5403F0BD06FF4403110
:10067000401804D001283ED0022823D135E000F0F4
:100680008DF91EE000F08AF900F05EF900F078F9CB
:1006900017E0D1F8880000F00C0040F44020B0F5DD
:1006A000402F08D0001FB0F54020E8D0042822D009
:1006B000082807D119E000F071F900F045F900F0C1
:1006C00051F90446204670BDD1F8880000F0300092
:1006D00040F44010B0F5401FEDD01038B0F5401098
:1006E000CDD0102807D02028ECD100F017F8002832
:1006F000E8D03446E6E700F009F80028E2D02C46BE
:10070000E0E70000001002400024F4000248006806
:10071000C0F3802070470000001002400248D0F86B
:100720009000C0F34000704700100240024800688B
:1007300000F0F00070470000001002400248D0F8BE
:10074000940000F470607047001002400248006896
:10075000C0F3C00070470000001002400248C068AB
:1007600000F0700070470000001002400248C068AE
:1007700000F00300704700000010024001490860CB
:10078000704700001400002070B5044600680D4654
:10079000012610F0010F42D1E9686868AA69084390
:1007A0002969114308432168254A11400843206004
:1007B000A868616821F44051014361606869A168DB
:1007C00021F440710143A1601E48844201D10320FD
:1007D00008E01D48844201D10C2003E01B488442FC
:1007E00003D13020FFF72CFF0BE01948844201D1E0
:1007F000C02004E01748844211D14FF44070FFF745
:10080000D1FE60B1296851B1AA690026B2F5004F46
:1008100007D000EB5100B0FBF1F080B2E060304651
:1008200070BD400000EB5100B0FBF1F081B24FF61B
:10083000F07201EA0200C1F342010843EEE7000052
:10084000F369FFEF003801400044004000480040D9
:10085000004C00400050004030B58DB01C2168466F
:10086000FFF747FD182107A8FFF743FD244850F87C
:10087000881F002421F00C0101604FF40030FFF7C5
:10088000DDFD0120FFF7CEFD0C250220CDE907504C
:100890000320CDE909040720CDE90B4007A94FF05B
:1008A0009040FFF7D7FD174800680022C0F30220F0
:1008B000114600F02FF80146262000F0AEF912494B
:1008C0004020C1F800014FF49640CDE900040294A5
:1008D000CDE90345059406940C4C69462046FFF784
:1008E00053FF606820F490406060A06820F02A0008
:1008F000A060206840F0010020600DB030BD000015
:10090000001002400CED00E004E000E00044004074
:10091000FEE7FEE730B500F00703C3F10704042C3F
:1009200000D90424181D072801D2002300E0DB1E93
:10093000012505FA04F0401E084098409D406D1EB8
:100940001540284330BD704704498968044A01F0C6
:10095000F0010909515CC8407047000000100240D6
:10096000EC0F000804498968044A01F4E06102EBD5
:1009700011210978C8407047001002402C1000086F
:1009800004498968044A01F4605102EBD1210978D5
:10099000C8407047001002402C100008184810B5DD
:1009A0008068184C10F00C0005D004281AD00828D4
:1009B0001AD00C281AD0FFF7C9FED8B1FFF7C6FE2F
:1009C00050B1FFF7B3FE09E0FFF7B0FE02E000BF51
:1009D000FFF7B4FE000A02E0FFF7B0FE000954F88A
:1009E000200010BD084810BD084810BDBDE81040EB
:1009F00000F00EB8FFF7AAFE0028E9D0E4E70000F7
:100A000000100240FC0F00080024F40000127A00DD
:100A100010B5FFF7ABFE1D4C012803D002282AD0E9
:100A200003282AD0FFF792FE28B1FFF78FFE48B3C4
:100A3000FFF77CFE06E0FFF789FE00B3FFF776FEC6
:100A4000000A00E0000954F8204000BFFFF786FECE
:100A5000012101EB1010B4FBF0F20D48C368C0682F
:100A6000C3F306235A4300F0C06001EB506040001E
:100A7000B2FBF0F010BD074CE8E7074CE6E7FFF7E4
:100A80005DFEDDE7FFF75AFEDCE70000FC0F000823
:100A9000001002400024F40000127A0070470000A9
:100AA00030B5074C0022064B0C3406E01D682D06BD
:100AB000FCD5855C2580521CD2B28A42F6D330BD6B
:100AC0001C44004002484168491C416070470000D6
:100AD0000C0000203B4810B5016821F0070141F0EF
:100AE00004010160016801F007010429FAD13649C7
:100AF000086820F4C06040F4007008603348026861
:100B000042F0010202600268C2F34002002AFAD0F9
:100B1000026842F008020260026822F0F00242F02D
:100B200060020260426822F47F4242600A6842F436
:100B300080720A60D0F8901021F01801C0F890106F
:100B4000D0F8901041F00101C0F89010D0F890104A
:100B5000C1F340010029F9D0016841F004010160AE
:100B6000C26842F601011A4B1A401143C160C168C4
:100B700041F08071C160016841F0807101600168DD
:100B8000C1F340610029FAD0816841F0030181601E
:100B9000816801F00C010C29FAD1816821F0F00183
:100BA0008160816821F4E0618160816821F4605195
:100BB0008160084C2046FFF7E8FC2046BDE8104065
:100BC000FFF7DCBD00200240007000400010024032
:100BD0008C80FFF900B4C4040248016841F470013C
:100BE0000160704788ED00E0084801688906FCD57F
:100BF0000648083002880748054B41785A54491C7A
:100C00004170012101700021416070471C44004087
:100C1000180000200C000020FEE70907090E00283C
:100C200004DB00F1E02080F80014704700F00F00B2
:100C300000F1E02080F8141D7047000070B52448D2
:100C40000178012919D123490968022915D3224CB9
:100C5000002101702278052A0FD3204D2878022820
:100C600016D0002004E02B5C022B03D0401CC0B245
:100C70009042F8D3904201D1217070BD72B6111A22
:100C8000CAB2291822701548FFF7EEFA62B670BD95
:100C9000134E921E1148318091B200F08BF83080D3
:100CA0006978301D4A008170C17042710329EED00D
:100CB0001029ECD120780B2805D00D2109A0BDE822
:100CC0007040FFF7EDBE06480221801CF7E70000E8
:100CD0000C000020100000200D0000201800002053
:100CE00000000020706F7368656C206E6168756924
:100CF00000000000294808B5016E41F001010166BD
:100D0000006E00F0010000904FF08050FFF796FB5E
:100D1000234801684FF6FF021140224A41F4407116
:100D20001143016000680022C0F302200F21FFF789
:100D3000F1FD01464FF0FF352846FFF76EFFFFF744
:100D4000C9FE0420FFF76EFB0120FFF76BFBFFF7E6
:100D500083FD154951E8000F40F0200241E80020D2
:100D60000028F7D14FF0E024104860610F21284699
:100D7000FFF753FF0020A06107212161216941F0A5
:100D8000020121610A49488009480221801C017042
:100D900010214170FFF752FFFCE7000000100240F5
:100DA0000CED00E00000FA05004400407F3801002F
:100DB0000000002070B5094DFF231A4605F5807626
:100DC00006E000BF10F8014B54402A5D5A40335DE5
:100DD000491E89B2F6D242EA032070BDEA0D00082E
:100DE0004FF04070E1EE100A704700C1814001C031
:100DF000804101C0804100C1814001C0804100C1EB
:100E0000814000C1814001C0804101C0804100C1DA
:100E1000814000C1814001C0804100C1814001C0CA
:100E2000804101C0804100C1814001C0804100C1BA
:100E3000814000C1814001C0804100C1814001C0AA
:100E4000804101C0804100C1814000C1814001C09A
:100E5000804101C0804100C1814001C0804100C18A
:100E6000814000C1814001C0804101C0804100C17A
:100E7000814000C1814001C0804100C1814001C06A
:100E8000804101C0804100C1814000C1814001C05A
:100E9000804101C0804100C1814001C0804100C14A
:100EA000814000C1814001C0804100C1814001C03A
:100EB000804101C0804100C1814001C0804100C12A
:100EC000814000C1814001C0804101C0804100C11A
:100ED000814000C1814001C0804100C1814001C00A
:100EE000804101C0804100C1814000C0C101C303F5
:100EF00002C2C60607C705C5C404CC0C0DCD0FCF72
:100F0000CE0E0ACACB0BC90908C8D81819D91BDBE1
:100F1000DA1A1EDEDF1FDD1D1CDC14D4D515D71731
:100F200016D6D21213D311D1D010F03031F133F3E1
:100F3000F23236F6F737F53534F43CFCFD3DFF3F31
:100F40003EFEFA3A3BFB39F9F83828E8E929EB2B61
:100F50002AEAEE2E2FEF2DEDEC2CE42425E527E7F1
:100F6000E62622E2E323E12120E0A06061A163A361
:100F7000A26266A6A767A56564A46CACAD6DAF6FF1
:100F80006EAEAA6A6BAB69A9A86878B8B979BB7B61
:100F90007ABABE7E7FBF7DBDBC7CB47475B577B7B1
:100FA000B67672B2B373B17170B0509091519353E1
:100FB000529296565797559594549C5C5D9D5F9FB1
:100FC0009E5E5A9A9B5B99595898884849894B8BE1
:100FD0008A4A4E8E8F4F8D4D4C8C44848545874771
:100FE0004686824243834181804000000000000029
:100FF000000000000102030406070809A0860100A2
:10100000400D0300801A060000350C0040420F001E
:1010100080841E0000093D0000127A000024F400C4
:1010200000366E010048E801006CDC0200000000A0
:101030000102030454100008000000201800000002
:10104000C40100086C1000081800002060070000B0
:10105000E0010008000000000000000000000000A7
:0C106000000000000000000000093D003E
:040000050800018965
:00000001FF
